{
  "_format": "hh-sol-artifact-1",
  "contractName": "MerkleVerifier",
  "sourceName": "contracts/MerkleVerifier.sol",
  "abi": [
    {
      "inputs": [
        {
          "internalType": "uint256[2]",
          "name": "a",
          "type": "uint256[2]"
        },
        {
          "internalType": "uint256[2][2]",
          "name": "b",
          "type": "uint256[2][2]"
        },
        {
          "internalType": "uint256[2]",
          "name": "c",
          "type": "uint256[2]"
        },
        {
          "internalType": "uint256[1]",
          "name": "input",
          "type": "uint256[1]"
        }
      ],
      "name": "verifyProof",
      "outputs": [
        {
          "internalType": "bool",
          "name": "r",
          "type": "bool"
        }
      ],
      "stateMutability": "view",
      "type": "function"
    }
  ],
  "bytecode": "0x608060405234801561001057600080fd5b50610e9e806100206000396000f3fe608060405234801561001057600080fd5b506004361061002b5760003560e01c806343753b4d14610030575b600080fd5b61012c600480360361012081101561004757600080fd5b6040805180820182529183019291818301918390600290839083908082843760009201829052506040805180820190915293969594608081019493509150600290835b828210156100c8576040805180820182529080840286019060029083908390808284376000920191909152505050815260019091019060200161008a565b5050604080518082018252939695948181019493509150600290839083908082843760009201919091525050604080516020818101909252929594938181019392509060019083908390808284376000920191909152509194506101409350505050565b604080519115158252519081900360200190f35b600061014a610d3d565b6040805180820182528751815260208089015181830152908352815160808101835287515181840190815288518301516060808401919091529082528351808501855289840180515182525184015181850152828401528483019190915282518084018452875181528783015181840152848401528251600180825281850190945290929091828101908036833701905050905060005b600181101561021a578481600181106101f657fe5b602002015182828151811061020757fe5b60209081029190910101526001016101e1565b506102258183610243565b6102345760019250505061023b565b6000925050505b949350505050565b60007f30644e72e131a029b85045b68181585d2833e84879b9709143e1f593f000000161026e610d6f565b61027661041b565b90508060800151518551600101146102ca576040805162461bcd60e51b81526020600482015260126024820152711d995c9a599a595c8b5898590b5a5b9c1d5d60721b604482015290519081900360640190fd5b6102d2610db6565b50604080518082019091526000808252602082018190525b86518110156103a4578387828151811061030057fe5b60200260200101511061035a576040805162461bcd60e51b815260206004820152601f60248201527f76657269666965722d6774652d736e61726b2d7363616c61722d6669656c6400604482015290519081900360640190fd5b61039a826103958560800151846001018151811061037457fe5b60200260200101518a858151811061038857fe5b602002602001015161079c565b610831565b91506001016102ea565b506103c78183608001516000815181106103ba57fe5b6020026020010151610831565b90506103fd6103d986600001516108c2565b8660200151846000015185602001518587604001518b60400151896060015161094e565b61040d5760019350505050610415565b600093505050505b92915050565b610423610d6f565b6040805180820182527f23826b294b445855eba1ca58bc468c24d66b2c717b24aa4d76fa78fef06fbf1181527f2a79e387a82da63d3223316e0f4f443ded6ed73cf28308d2032a4081835cf0836020808301919091529083528151608080820184527f0437da57259ab8e58f5304040e10a352d4cb60cf303c35501d843b7353508d2e8285019081527f1aba66294912123cc79b2d0a653786413a23765e1ff15df509310a559c949c8a606080850191909152908352845180860186527f0daf30fadd4a47997bad08dae4809bea92f1e73d6816df3aaeda8cf6bc33eecd81527f28188dbe1657726fa4bce055b364f6da60137d6a441886fe94a500ce579b0a11818601528385015285840192909252835180820185527f198e9393920d483a7260bfb731fb5d25f1aa493335a9e71297e485b7aef312c28186019081527f1800deef121f1e76426a00665e5c4479674322d4f75edadd46debd5cd992f6ed828501528152845180860186527f090689d0585ff075ec9e99ad690c3395bc4b313370b38ef355acdadcd122975b81527f12c85ea5db8c6deb4aab71808dcb408fe3d1e7690c43d37b4ce6cc0166fa7daa818601528185015285850152835190810184527f17a76a32d35f4100cde6f60a8021a09249c0aa445222f24d03110de5f99272358185019081527f2335376e0bce650c7b1045636457505b70bd866d221c009ae91b29af1843766f828401528152835180850185527f05664e37f95d6f6208522189667d73a145d253f387c52010d69b1b31fbfdae1d81527f1dba0d77b0ccc283657cb1121140be8306d8e171d56d9fba046bb3a5db180f04818501528184015281850152825160028082529181019093529082015b6106a4610db6565b81526020019060019003908161069c57505060808201908152604080518082019091527f2a0ec13d96620488ed1b306f4f85b8bc5c603a712f6e6041035f98ca92ec388c81527f2c75f3c6423644e9d007820220903909001bbf67d81044526147d39f39933e3460208201529051805160009061071d57fe5b602002602001018190525060405180604001604052807f0f2ef5eee0961f728001bcb724a1e5127c94e7b30a0ad3f220d9a5b2872d4a0b81526020017f266cecc5b77feb7f0a95df900289dc9d1ae94af02020cd98e923b4cc66b92a15815250816080015160018151811061078e57fe5b602002602001018190525090565b6107a4610db6565b6107ac610dd0565b835181526020808501519082015260408101839052600060608360808460076107d05a03fa90508080156107df576107e1565bfe5b5080610829576040805162461bcd60e51b81526020600482015260126024820152711c185a5c9a5b99cb5b5d5b0b59985a5b195960721b604482015290519081900360640190fd5b505092915050565b610839610db6565b610841610dee565b8351815260208085015181830152835160408301528301516060808301919091526000908360c08460066107d05a03fa90508080156107df575080610829576040805162461bcd60e51b81526020600482015260126024820152711c185a5c9a5b99cb5859190b59985a5b195960721b604482015290519081900360640190fd5b6108ca610db6565b81517f30644e72e131a029b85045b68181585d97816a916871ca8d3c208c16d87cfd47901580156108fd57506020830151155b1561091d5750506040805180820190915260008082526020820152610949565b6040518060400160405280846000015181526020018285602001518161093f57fe5b0683038152509150505b919050565b60408051600480825260a0820190925260009160609190816020015b610972610db6565b81526020019060019003908161096a57505060408051600480825260a0820190925291925060609190602082015b6109a8610e0c565b8152602001906001900390816109a05790505090508a826000815181106109cb57fe5b602002602001018190525088826001815181106109e457fe5b602002602001018190525086826002815181106109fd57fe5b60200260200101819052508482600381518110610a1657fe5b60200260200101819052508981600081518110610a2f57fe5b60200260200101819052508781600181518110610a4857fe5b60200260200101819052508581600281518110610a6157fe5b60200260200101819052508381600381518110610a7a57fe5b6020026020010181905250610a8f8282610a9e565b9b9a5050505050505050505050565b60008151835114610aef576040805162461bcd60e51b81526020600482015260166024820152751c185a5c9a5b99cb5b195b99dd1a1ccb59985a5b195960521b604482015290519081900360640190fd5b82516006810260608167ffffffffffffffff81118015610b0e57600080fd5b50604051908082528060200260200182016040528015610b38578160200160208202803683370190505b50905060005b83811015610cbd57868181518110610b5257fe5b602002602001015160000151828260060260000181518110610b7057fe5b602002602001018181525050868181518110610b8857fe5b602002602001015160200151828260060260010181518110610ba657fe5b602002602001018181525050858181518110610bbe57fe5b602090810291909101015151518251839060026006850201908110610bdf57fe5b602002602001018181525050858181518110610bf757fe5b60209081029190910101515160016020020151828260060260030181518110610c1c57fe5b602002602001018181525050858181518110610c3457fe5b602002602001015160200151600060028110610c4c57fe5b6020020151828260060260040181518110610c6357fe5b602002602001018181525050858181518110610c7b57fe5b602002602001015160200151600160028110610c9357fe5b6020020151828260060260050181518110610caa57fe5b6020908102919091010152600101610b3e565b50610cc6610e2c565b6000602082602086026020860160086107d05a03fa90508080156107df575080610d2f576040805162461bcd60e51b81526020600482015260156024820152741c185a5c9a5b99cb5bdc18dbd9194b59985a5b1959605a1b604482015290519081900360640190fd5b505115159695505050505050565b6040518060600160405280610d50610db6565b8152602001610d5d610e0c565b8152602001610d6a610db6565b905290565b6040518060a00160405280610d82610db6565b8152602001610d8f610e0c565b8152602001610d9c610e0c565b8152602001610da9610e0c565b8152602001606081525090565b604051806040016040528060008152602001600081525090565b60405180606001604052806003906020820280368337509192915050565b60405180608001604052806004906020820280368337509192915050565b6040518060400160405280610e1f610e4a565b8152602001610d6a610e4a565b60405180602001604052806001906020820280368337509192915050565b6040518060400160405280600290602082028036833750919291505056fea2646970667358221220b2b916959b1a4c67535cfc60288e53010a18d99eb97f953d6d5f567312d2dcec64736f6c634300060b0033",
  "linkReferences": {},
  "deployedLinkReferences": {}
}